{
  "_format": "hh-sol-artifact-1",
  "contractName": "RideFactory",
  "sourceName": "contracts/Ride.sol",
  "abi": [
    {
      "inputs": [],
      "stateMutability": "nonpayable",
      "type": "constructor"
    },
    {
      "anonymous": false,
      "inputs": [
        {
          "indexed": false,
          "internalType": "address",
          "name": "ride",
          "type": "address"
        }
      ],
      "name": "RideCreated",
      "type": "event"
    },
    {
      "inputs": [
        {
          "internalType": "uint256",
          "name": "_price",
          "type": "uint256"
        },
        {
          "internalType": "address",
          "name": "_driver",
          "type": "address"
        }
      ],
      "name": "createRide",
      "outputs": [],
      "stateMutability": "nonpayable",
      "type": "function"
    },
    {
      "inputs": [],
      "name": "getRides",
      "outputs": [
        {
          "internalType": "address[]",
          "name": "",
          "type": "address[]"
        }
      ],
      "stateMutability": "view",
      "type": "function"
    },
    {
      "inputs": [
        {
          "internalType": "uint256",
          "name": "",
          "type": "uint256"
        }
      ],
      "name": "rides",
      "outputs": [
        {
          "internalType": "address",
          "name": "",
          "type": "address"
        }
      ],
      "stateMutability": "view",
      "type": "function"
    }
  ],
  "bytecode": "0x608060405234801561001057600080fd5b50611687806100206000396000f3fe608060405234801561001057600080fd5b50600436106100415760003560e01c806321795bd614610046578063323b597c146100625780635205f11214610080575b600080fd5b610060600480360381019061005b91906102fe565b6100b0565b005b61006a61018b565b60405161007791906103fc565b60405180910390f35b61009a6004803603810190610095919061041e565b610219565b6040516100a7919061045a565b60405180910390f35b60003383836040516100c190610258565b6100cd93929190610484565b604051809103906000f0801580156100e9573d6000803e3d6000fd5b5090506000819080600181540180825580915050600190039060005260206000200160009091909190916101000a81548173ffffffffffffffffffffffffffffffffffffffff021916908373ffffffffffffffffffffffffffffffffffffffff1602179055507fb64bfde0908e54f6d45d78705460e39d9afa62e4d9ccf88bb065f3447b621c6a8160405161017e919061045a565b60405180910390a1505050565b6060600080548060200260200160405190810160405280929190818152602001828054801561020f57602002820191906000526020600020905b8160009054906101000a900473ffffffffffffffffffffffffffffffffffffffff1673ffffffffffffffffffffffffffffffffffffffff16815260200190600101908083116101c5575b5050505050905090565b6000818154811061022957600080fd5b906000526020600020016000915054906101000a900473ffffffffffffffffffffffffffffffffffffffff1681565b611196806104bc83390190565b600080fd5b6000819050919050565b61027d8161026a565b811461028857600080fd5b50565b60008135905061029a81610274565b92915050565b600073ffffffffffffffffffffffffffffffffffffffff82169050919050565b60006102cb826102a0565b9050919050565b6102db816102c0565b81146102e657600080fd5b50565b6000813590506102f8816102d2565b92915050565b6000806040838503121561031557610314610265565b5b60006103238582860161028b565b9250506020610334858286016102e9565b9150509250929050565b600081519050919050565b600082825260208201905092915050565b6000819050602082019050919050565b610373816102c0565b82525050565b6000610385838361036a565b60208301905092915050565b6000602082019050919050565b60006103a98261033e565b6103b38185610349565b93506103be8361035a565b8060005b838110156103ef5781516103d68882610379565b97506103e183610391565b9250506001810190506103c2565b5085935050505092915050565b60006020820190508181036000830152610416818461039e565b905092915050565b60006020828403121561043457610433610265565b5b60006104428482850161028b565b91505092915050565b610454816102c0565b82525050565b600060208201905061046f600083018461044b565b92915050565b61047e8161026a565b82525050565b6000606082019050610499600083018661044b565b6104a66020830185610475565b6104b3604083018461044b565b94935050505056fe60806040523480156200001157600080fd5b50604051620011963803806200119683398181016040528101906200003791906200016d565b826000806101000a81548173ffffffffffffffffffffffffffffffffffffffff021916908373ffffffffffffffffffffffffffffffffffffffff16021790555080600160006101000a81548173ffffffffffffffffffffffffffffffffffffffff021916908373ffffffffffffffffffffffffffffffffffffffff16021790555081600381905550505050620001c9565b600080fd5b600073ffffffffffffffffffffffffffffffffffffffff82169050919050565b6000620000fa82620000cd565b9050919050565b6200010c81620000ed565b81146200011857600080fd5b50565b6000815190506200012c8162000101565b92915050565b6000819050919050565b620001478162000132565b81146200015357600080fd5b50565b60008151905062000167816200013c565b92915050565b600080600060608486031215620001895762000188620000c8565b5b600062000199868287016200011b565b9350506020620001ac8682870162000156565b9250506040620001bf868287016200011b565b9150509250925092565b610fbd80620001d96000396000f3fe6080604052600436106100915760003560e01c80638da5cb5b116100595780638da5cb5b1461011d578063a035b1fe14610148578063c11ae86f14610173578063ec0004f91461019e578063f1d10de9146101ba57610091565b806301dc001814610096578063041cad6c146100ad5780636ecc5d62146100c457806370abc998146100ef5780637ec8a33214610106575b600080fd5b3480156100a257600080fd5b506100ab6101d1565b005b3480156100b957600080fd5b506100c2610324565b005b3480156100d057600080fd5b506100d96103df565b6040516100e691906109f9565b60405180910390f35b3480156100fb57600080fd5b50610104610405565b005b34801561011257600080fd5b5061011b610556565b005b34801561012957600080fd5b50610132610693565b60405161013f91906109f9565b60405180910390f35b34801561015457600080fd5b5061015d6106b7565b60405161016a9190610a2d565b60405180910390f35b34801561017f57600080fd5b506101886106bd565b60405161019591906109f9565b60405180910390f35b6101b860048036038101906101b39190610a79565b6106e3565b005b3480156101c657600080fd5b506101cf61090d565b005b600160009054906101000a900473ffffffffffffffffffffffffffffffffffffffff1673ffffffffffffffffffffffffffffffffffffffff163373ffffffffffffffffffffffffffffffffffffffff1614610261576040517f08c379a000000000000000000000000000000000000000000000000000000000815260040161025890610b03565b60405180910390fd5b60011515600460009054906101000a900460ff161515146102b7576040517f08c379a00000000000000000000000000000000000000000000000000000000081526004016102ae90610b95565b60405180910390fd5b600160009054906101000a900473ffffffffffffffffffffffffffffffffffffffff1673ffffffffffffffffffffffffffffffffffffffff166108fc6003549081150290604051600060405180830381858888f19350505050158015610321573d6000803e3d6000fd5b50565b600260009054906101000a900473ffffffffffffffffffffffffffffffffffffffff1673ffffffffffffffffffffffffffffffffffffffff163373ffffffffffffffffffffffffffffffffffffffff16146103b4576040517f08c379a00000000000000000000000000000000000000000000000000000000081526004016103ab90610c01565b60405180910390fd5b426008819055506001600460006101000a81548160ff02191690831515021790555042600581905550565b600160009054906101000a900473ffffffffffffffffffffffffffffffffffffffff1681565b60008054906101000a900473ffffffffffffffffffffffffffffffffffffffff1673ffffffffffffffffffffffffffffffffffffffff163373ffffffffffffffffffffffffffffffffffffffff1614610493576040517f08c379a000000000000000000000000000000000000000000000000000000000815260040161048a90610c93565b60405180910390fd5b60001515600460009054906101000a900460ff161515146104e9576040517f08c379a00000000000000000000000000000000000000000000000000000000081526004016104e090610d25565b60405180910390fd5b600260009054906101000a900473ffffffffffffffffffffffffffffffffffffffff1673ffffffffffffffffffffffffffffffffffffffff166108fc6003549081150290604051600060405180830381858888f19350505050158015610553573d6000803e3d6000fd5b50565b600260009054906101000a900473ffffffffffffffffffffffffffffffffffffffff1673ffffffffffffffffffffffffffffffffffffffff163373ffffffffffffffffffffffffffffffffffffffff16146105e6576040517f08c379a00000000000000000000000000000000000000000000000000000000081526004016105dd90610db7565b60405180910390fd5b600660009054906101000a900460ff1615610636576040517f08c379a000000000000000000000000000000000000000000000000000000000815260040161062d90610e23565b60405180910390fd5b6001600660006101000a81548160ff021916908315150217905550426007819055507f1caef5aba80487f3eb64526a934f8250dd2591d249cd4f14756041c0ff93607d6007546040516106899190610a2d565b60405180910390a1565b60008054906101000a900473ffffffffffffffffffffffffffffffffffffffff1681565b60035481565b600260009054906101000a900473ffffffffffffffffffffffffffffffffffffffff1681565b600354341015610728576040517f08c379a000000000000000000000000000000000000000000000000000000000815260040161071f90610e8f565b60405180910390fd5b600073ffffffffffffffffffffffffffffffffffffffff16600260009054906101000a900473ffffffffffffffffffffffffffffffffffffffff1673ffffffffffffffffffffffffffffffffffffffff16146107b9576040517f08c379a00000000000000000000000000000000000000000000000000000000081526004016107b090610efb565b60405180910390fd5b600660009054906101000a900460ff1615610809576040517f08c379a000000000000000000000000000000000000000000000000000000000815260040161080090610e23565b60405180910390fd5b80600260006101000a81548173ffffffffffffffffffffffffffffffffffffffff021916908373ffffffffffffffffffffffffffffffffffffffff16021790555060008054906101000a900473ffffffffffffffffffffffffffffffffffffffff1673ffffffffffffffffffffffffffffffffffffffff166108fc349081150290604051600060405180830381858888f193505050501580156108b0573d6000803e3d6000fd5b507f621e907b0b61084a1f2660c5627f80111a59ab9291ce55345a6145057946e9cc600260009054906101000a900473ffffffffffffffffffffffffffffffffffffffff1660405161090291906109f9565b60405180910390a150565b60008054906101000a900473ffffffffffffffffffffffffffffffffffffffff1673ffffffffffffffffffffffffffffffffffffffff163373ffffffffffffffffffffffffffffffffffffffff161461099b576040517f08c379a000000000000000000000000000000000000000000000000000000000815260040161099290610f67565b60405180910390fd5b6001600460006101000a81548160ff021916908315150217905550565b600073ffffffffffffffffffffffffffffffffffffffff82169050919050565b60006109e3826109b8565b9050919050565b6109f3816109d8565b82525050565b6000602082019050610a0e60008301846109ea565b92915050565b6000819050919050565b610a2781610a14565b82525050565b6000602082019050610a426000830184610a1e565b92915050565b600080fd5b610a56816109d8565b8114610a6157600080fd5b50565b600081359050610a7381610a4d565b92915050565b600060208284031215610a8f57610a8e610a48565b5b6000610a9d84828501610a64565b91505092915050565b600082825260208201905092915050565b7f4f6e6c79206472697665722063616e2072657175657374206d6f6e6579000000600082015250565b6000610aed601d83610aa6565b9150610af882610ab7565b602082019050919050565b60006020820190508181036000830152610b1c81610ae0565b9050919050565b7f44657374696e6174696f6e206e6f742072656163686564207965742c2063616e60008201527f27742072657175657374206d6f6e657900000000000000000000000000000000602082015250565b6000610b7f603083610aa6565b9150610b8a82610b23565b604082019050919050565b60006020820190508181036000830152610bae81610b72565b9050919050565b7f4f6e6c792070617373656e6765722063616e20656e6420746865207269646500600082015250565b6000610beb601f83610aa6565b9150610bf682610bb5565b602082019050919050565b60006020820190508181036000830152610c1a81610bde565b9050919050565b7f4f6e6c79206f776e65722063616e20726566756e64207468652070617373656e60008201527f6765720000000000000000000000000000000000000000000000000000000000602082015250565b6000610c7d602383610aa6565b9150610c8882610c21565b604082019050919050565b60006020820190508181036000830152610cac81610c70565b9050919050565b7f44657374696e6174696f6e20726561636865642c2063616e277420726566756e60008201527f64207468652070617373656e6765720000000000000000000000000000000000602082015250565b6000610d0f602f83610aa6565b9150610d1a82610cb3565b604082019050919050565b60006020820190508181036000830152610d3e81610d02565b9050919050565b7f4f6e6c792070617373656e6765722063616e207374617274207468652072696460008201527f6500000000000000000000000000000000000000000000000000000000000000602082015250565b6000610da1602183610aa6565b9150610dac82610d45565b604082019050919050565b60006020820190508181036000830152610dd081610d94565b9050919050565b7f5269646520616c72656164792073746172746564000000000000000000000000600082015250565b6000610e0d601483610aa6565b9150610e1882610dd7565b602082019050919050565b60006020820190508181036000830152610e3c81610e00565b9050919050565b7f4e6f7420656e6f756768206d6f6e657900000000000000000000000000000000600082015250565b6000610e79601083610aa6565b9150610e8482610e43565b602082019050919050565b60006020820190508181036000830152610ea881610e6c565b9050919050565b7f50617373656e67657220616c7265616479206164646564000000000000000000600082015250565b6000610ee5601783610aa6565b9150610ef082610eaf565b602082019050919050565b60006020820190508181036000830152610f1481610ed8565b9050919050565b7f4f6e6c79206f776e65722063616e206f76657272696465000000000000000000600082015250565b6000610f51601783610aa6565b9150610f5c82610f1b565b602082019050919050565b60006020820190508181036000830152610f8081610f44565b905091905056fea2646970667358221220f2d4b3dfea1a7ab01e39fe249a3a3ca185e4474e1a2f6dd8053a358aa0d3e6c664736f6c63430008120033a26469706673582212208b5a41ffe067c0212acef0fab8e20806e3dcce611bc9312eb0af714e8a35a74064736f6c63430008120033",
  "linkReferences": {},
  "deployedLinkReferences": {}
}