{
  "_format": "hh-sol-artifact-1",
  "contractName": "RideFactory",
  "sourceName": "contracts/Ride.sol",
  "abi": [
    {
      "inputs": [],
      "stateMutability": "nonpayable",
      "type": "constructor"
    },
    {
      "anonymous": false,
      "inputs": [
        {
          "indexed": false,
          "internalType": "address",
          "name": "ride",
          "type": "address"
        }
      ],
      "name": "RideCreated",
      "type": "event"
    },
    {
      "inputs": [
        {
          "internalType": "uint256",
          "name": "_price",
          "type": "uint256"
        },
        {
          "internalType": "address",
          "name": "_driver",
          "type": "address"
        },
        {
          "internalType": "string",
          "name": "origin",
          "type": "string"
        },
        {
          "internalType": "string",
          "name": "desitnation",
          "type": "string"
        }
      ],
      "name": "createRide",
      "outputs": [
        {
          "internalType": "address",
          "name": "",
          "type": "address"
        }
      ],
      "stateMutability": "nonpayable",
      "type": "function"
    },
    {
      "inputs": [],
      "name": "getRides",
      "outputs": [
        {
          "internalType": "address[]",
          "name": "",
          "type": "address[]"
        }
      ],
      "stateMutability": "view",
      "type": "function"
    },
    {
      "inputs": [
        {
          "internalType": "uint256",
          "name": "",
          "type": "uint256"
        }
      ],
      "name": "rides",
      "outputs": [
        {
          "internalType": "address",
          "name": "",
          "type": "address"
        }
      ],
      "stateMutability": "view",
      "type": "function"
    }
  ],
  "bytecode": "0x608060405234801561001057600080fd5b5061204c806100206000396000f3fe60806040523480156200001157600080fd5b5060043610620000465760003560e01c8063323b597c146200004b5780635205f112146200006d578063ea332c4914620000a3575b600080fd5b62000055620000d9565b604051620000649190620003ad565b60405180910390f35b6200008b600480360381019062000085919062000416565b62000169565b6040516200009a919062000459565b60405180910390f35b620000c16004803603810190620000bb919062000515565b620001a9565b604051620000d0919062000459565b60405180910390f35b606060008054806020026020016040519081016040528092919081815260200182805480156200015f57602002820191906000526020600020905b8160009054906101000a900473ffffffffffffffffffffffffffffffffffffffff1673ffffffffffffffffffffffffffffffffffffffff168152602001906001019080831162000114575b5050505050905090565b600081815481106200017a57600080fd5b906000526020600020016000915054906101000a900473ffffffffffffffffffffffffffffffffffffffff1681565b60008033888888888888604051620001c1906200029d565b620001d3979695949392919062000642565b604051809103906000f080158015620001f0573d6000803e3d6000fd5b5090506000819080600181540180825580915050600190039060005260206000200160009091909190916101000a81548173ffffffffffffffffffffffffffffffffffffffff021916908373ffffffffffffffffffffffffffffffffffffffff1602179055507fb64bfde0908e54f6d45d78705460e39d9afa62e4d9ccf88bb065f3447b621c6a8160405162000287919062000459565b60405180910390a1809150509695505050505050565b61196580620006b283390190565b600081519050919050565b600082825260208201905092915050565b6000819050602082019050919050565b600073ffffffffffffffffffffffffffffffffffffffff82169050919050565b60006200030482620002d7565b9050919050565b6200031681620002f7565b82525050565b60006200032a83836200030b565b60208301905092915050565b6000602082019050919050565b60006200035082620002ab565b6200035c8185620002b6565b93506200036983620002c7565b8060005b83811015620003a05781516200038488826200031c565b9750620003918362000336565b9250506001810190506200036d565b5085935050505092915050565b60006020820190508181036000830152620003c9818462000343565b905092915050565b600080fd5b600080fd5b6000819050919050565b620003f081620003db565b8114620003fc57600080fd5b50565b6000813590506200041081620003e5565b92915050565b6000602082840312156200042f576200042e620003d1565b5b60006200043f84828501620003ff565b91505092915050565b6200045381620002f7565b82525050565b600060208201905062000470600083018462000448565b92915050565b6200048181620002f7565b81146200048d57600080fd5b50565b600081359050620004a18162000476565b92915050565b600080fd5b600080fd5b600080fd5b60008083601f840112620004cf57620004ce620004a7565b5b8235905067ffffffffffffffff811115620004ef57620004ee620004ac565b5b6020830191508360018202830111156200050e576200050d620004b1565b5b9250929050565b60008060008060008060808789031215620005355762000534620003d1565b5b60006200054589828a01620003ff565b96505060206200055889828a0162000490565b955050604087013567ffffffffffffffff8111156200057c576200057b620003d6565b5b6200058a89828a01620004b6565b9450945050606087013567ffffffffffffffff811115620005b057620005af620003d6565b5b620005be89828a01620004b6565b92509250509295509295509295565b620005d881620003db565b82525050565b600082825260208201905092915050565b82818337600083830152505050565b6000601f19601f8301169050919050565b60006200061d8385620005de565b93506200062c838584620005ef565b6200063783620005fe565b840190509392505050565b600060a08201905062000659600083018a62000448565b620006686020830189620005cd565b62000677604083018862000448565b81810360608301526200068c8186886200060f565b90508181036080830152620006a38184866200060f565b90509897505050505050505056fe60806040523480156200001157600080fd5b506040516200196538038062001965833981810160405281019062000037919062000321565b846000806101000a81548173ffffffffffffffffffffffffffffffffffffffff021916908373ffffffffffffffffffffffffffffffffffffffff16021790555082600160006101000a81548173ffffffffffffffffffffffffffffffffffffffff021916908373ffffffffffffffffffffffffffffffffffffffff160217905550836003819055508160099081620000d0919062000628565b5080600a9081620000e2919062000628565b5050505050506200070f565b6000604051905090565b600080fd5b600080fd5b600073ffffffffffffffffffffffffffffffffffffffff82169050919050565b60006200012f8262000102565b9050919050565b620001418162000122565b81146200014d57600080fd5b50565b600081519050620001618162000136565b92915050565b6000819050919050565b6200017c8162000167565b81146200018857600080fd5b50565b6000815190506200019c8162000171565b92915050565b600080fd5b600080fd5b6000601f19601f8301169050919050565b7f4e487b7100000000000000000000000000000000000000000000000000000000600052604160045260246000fd5b620001f782620001ac565b810181811067ffffffffffffffff82111715620002195762000218620001bd565b5b80604052505050565b60006200022e620000ee565b90506200023c8282620001ec565b919050565b600067ffffffffffffffff8211156200025f576200025e620001bd565b5b6200026a82620001ac565b9050602081019050919050565b60005b83811015620002975780820151818401526020810190506200027a565b60008484015250505050565b6000620002ba620002b48462000241565b62000222565b905082815260208101848484011115620002d957620002d8620001a7565b5b620002e684828562000277565b509392505050565b600082601f830112620003065762000305620001a2565b5b815162000318848260208601620002a3565b91505092915050565b600080600080600060a0868803121562000340576200033f620000f8565b5b6000620003508882890162000150565b955050602062000363888289016200018b565b9450506040620003768882890162000150565b935050606086015167ffffffffffffffff8111156200039a5762000399620000fd565b5b620003a888828901620002ee565b925050608086015167ffffffffffffffff811115620003cc57620003cb620000fd565b5b620003da88828901620002ee565b9150509295509295909350565b600081519050919050565b7f4e487b7100000000000000000000000000000000000000000000000000000000600052602260045260246000fd5b600060028204905060018216806200043a57607f821691505b60208210810362000450576200044f620003f2565b5b50919050565b60008190508160005260206000209050919050565b60006020601f8301049050919050565b600082821b905092915050565b600060088302620004ba7fffffffffffffffffffffffffffffffffffffffffffffffffffffffffffffffff826200047b565b620004c686836200047b565b95508019841693508086168417925050509392505050565b6000819050919050565b60006200050962000503620004fd8462000167565b620004de565b62000167565b9050919050565b6000819050919050565b6200052583620004e8565b6200053d620005348262000510565b84845462000488565b825550505050565b600090565b6200055462000545565b620005618184846200051a565b505050565b5b8181101562000589576200057d6000826200054a565b60018101905062000567565b5050565b601f821115620005d857620005a28162000456565b620005ad846200046b565b81016020851015620005bd578190505b620005d5620005cc856200046b565b83018262000566565b50505b505050565b600082821c905092915050565b6000620005fd60001984600802620005dd565b1980831691505092915050565b6000620006188383620005ea565b9150826002028217905092915050565b6200063382620003e7565b67ffffffffffffffff8111156200064f576200064e620001bd565b5b6200065b825462000421565b620006688282856200058d565b600060209050601f831160018114620006a057600084156200068b578287015190505b6200069785826200060a565b86555062000707565b601f198416620006b08662000456565b60005b82811015620006da57848901518255600182019150602085019450602081019050620006b3565b86831015620006fa5784890151620006f6601f891682620005ea565b8355505b6001600288020188555050505b505050505050565b611246806200071f6000396000f3fe6080604052600436106100a75760003560e01c8063938b5f3211610064578063938b5f321461015e578063a035b1fe14610189578063b269681d146101b4578063c11ae86f146101df578063ec0004f91461020a578063f1d10de914610226576100a7565b806301dc0018146100ac578063041cad6c146100c35780636ecc5d62146100da57806370abc998146101055780637ec8a3321461011c5780638da5cb5b14610133575b600080fd5b3480156100b857600080fd5b506100c161023d565b005b3480156100cf57600080fd5b506100d8610390565b005b3480156100e657600080fd5b506100ef61044b565b6040516100fc9190610b81565b60405180910390f35b34801561011157600080fd5b5061011a610471565b005b34801561012857600080fd5b506101316105c2565b005b34801561013f57600080fd5b506101486106ff565b6040516101559190610b81565b60405180910390f35b34801561016a57600080fd5b50610173610723565b6040516101809190610c2c565b60405180910390f35b34801561019557600080fd5b5061019e6107b1565b6040516101ab9190610c67565b60405180910390f35b3480156101c057600080fd5b506101c96107b7565b6040516101d69190610c2c565b60405180910390f35b3480156101eb57600080fd5b506101f4610845565b6040516102019190610b81565b60405180910390f35b610224600480360381019061021f9190610cb3565b61086b565b005b34801561023257600080fd5b5061023b610a95565b005b600160009054906101000a900473ffffffffffffffffffffffffffffffffffffffff1673ffffffffffffffffffffffffffffffffffffffff163373ffffffffffffffffffffffffffffffffffffffff16146102cd576040517f08c379a00000000000000000000000000000000000000000000000000000000081526004016102c490610d2c565b60405180910390fd5b60011515600460009054906101000a900460ff16151514610323576040517f08c379a000000000000000000000000000000000000000000000000000000000815260040161031a90610dbe565b60405180910390fd5b600160009054906101000a900473ffffffffffffffffffffffffffffffffffffffff1673ffffffffffffffffffffffffffffffffffffffff166108fc6003549081150290604051600060405180830381858888f1935050505015801561038d573d6000803e3d6000fd5b50565b600260009054906101000a900473ffffffffffffffffffffffffffffffffffffffff1673ffffffffffffffffffffffffffffffffffffffff163373ffffffffffffffffffffffffffffffffffffffff1614610420576040517f08c379a000000000000000000000000000000000000000000000000000000000815260040161041790610e2a565b60405180910390fd5b426008819055506001600460006101000a81548160ff02191690831515021790555042600581905550565b600160009054906101000a900473ffffffffffffffffffffffffffffffffffffffff1681565b60008054906101000a900473ffffffffffffffffffffffffffffffffffffffff1673ffffffffffffffffffffffffffffffffffffffff163373ffffffffffffffffffffffffffffffffffffffff16146104ff576040517f08c379a00000000000000000000000000000000000000000000000000000000081526004016104f690610ebc565b60405180910390fd5b60001515600460009054906101000a900460ff16151514610555576040517f08c379a000000000000000000000000000000000000000000000000000000000815260040161054c90610f4e565b60405180910390fd5b600260009054906101000a900473ffffffffffffffffffffffffffffffffffffffff1673ffffffffffffffffffffffffffffffffffffffff166108fc6003549081150290604051600060405180830381858888f193505050501580156105bf573d6000803e3d6000fd5b50565b600260009054906101000a900473ffffffffffffffffffffffffffffffffffffffff1673ffffffffffffffffffffffffffffffffffffffff163373ffffffffffffffffffffffffffffffffffffffff1614610652576040517f08c379a000000000000000000000000000000000000000000000000000000000815260040161064990610fe0565b60405180910390fd5b600660009054906101000a900460ff16156106a2576040517f08c379a00000000000000000000000000000000000000000000000000000000081526004016106999061104c565b60405180910390fd5b6001600660006101000a81548160ff021916908315150217905550426007819055507f1caef5aba80487f3eb64526a934f8250dd2591d249cd4f14756041c0ff93607d6007546040516106f59190610c67565b60405180910390a1565b60008054906101000a900473ffffffffffffffffffffffffffffffffffffffff1681565b600980546107309061109b565b80601f016020809104026020016040519081016040528092919081815260200182805461075c9061109b565b80156107a95780601f1061077e576101008083540402835291602001916107a9565b820191906000526020600020905b81548152906001019060200180831161078c57829003601f168201915b505050505081565b60035481565b600a80546107c49061109b565b80601f01602080910402602001604051908101604052809291908181526020018280546107f09061109b565b801561083d5780601f106108125761010080835404028352916020019161083d565b820191906000526020600020905b81548152906001019060200180831161082057829003601f168201915b505050505081565b600260009054906101000a900473ffffffffffffffffffffffffffffffffffffffff1681565b6003543410156108b0576040517f08c379a00000000000000000000000000000000000000000000000000000000081526004016108a790611118565b60405180910390fd5b600073ffffffffffffffffffffffffffffffffffffffff16600260009054906101000a900473ffffffffffffffffffffffffffffffffffffffff1673ffffffffffffffffffffffffffffffffffffffff1614610941576040517f08c379a000000000000000000000000000000000000000000000000000000000815260040161093890611184565b60405180910390fd5b600660009054906101000a900460ff1615610991576040517f08c379a00000000000000000000000000000000000000000000000000000000081526004016109889061104c565b60405180910390fd5b80600260006101000a81548173ffffffffffffffffffffffffffffffffffffffff021916908373ffffffffffffffffffffffffffffffffffffffff16021790555060008054906101000a900473ffffffffffffffffffffffffffffffffffffffff1673ffffffffffffffffffffffffffffffffffffffff166108fc349081150290604051600060405180830381858888f19350505050158015610a38573d6000803e3d6000fd5b507f621e907b0b61084a1f2660c5627f80111a59ab9291ce55345a6145057946e9cc600260009054906101000a900473ffffffffffffffffffffffffffffffffffffffff16604051610a8a9190610b81565b60405180910390a150565b60008054906101000a900473ffffffffffffffffffffffffffffffffffffffff1673ffffffffffffffffffffffffffffffffffffffff163373ffffffffffffffffffffffffffffffffffffffff1614610b23576040517f08c379a0000000000000000000000000000000000000000000000000000000008152600401610b1a906111f0565b60405180910390fd5b6001600460006101000a81548160ff021916908315150217905550565b600073ffffffffffffffffffffffffffffffffffffffff82169050919050565b6000610b6b82610b40565b9050919050565b610b7b81610b60565b82525050565b6000602082019050610b966000830184610b72565b92915050565b600081519050919050565b600082825260208201905092915050565b60005b83811015610bd6578082015181840152602081019050610bbb565b60008484015250505050565b6000601f19601f8301169050919050565b6000610bfe82610b9c565b610c088185610ba7565b9350610c18818560208601610bb8565b610c2181610be2565b840191505092915050565b60006020820190508181036000830152610c468184610bf3565b905092915050565b6000819050919050565b610c6181610c4e565b82525050565b6000602082019050610c7c6000830184610c58565b92915050565b600080fd5b610c9081610b60565b8114610c9b57600080fd5b50565b600081359050610cad81610c87565b92915050565b600060208284031215610cc957610cc8610c82565b5b6000610cd784828501610c9e565b91505092915050565b7f4f6e6c79206472697665722063616e2072657175657374206d6f6e6579000000600082015250565b6000610d16601d83610ba7565b9150610d2182610ce0565b602082019050919050565b60006020820190508181036000830152610d4581610d09565b9050919050565b7f44657374696e6174696f6e206e6f742072656163686564207965742c2063616e60008201527f27742072657175657374206d6f6e657900000000000000000000000000000000602082015250565b6000610da8603083610ba7565b9150610db382610d4c565b604082019050919050565b60006020820190508181036000830152610dd781610d9b565b9050919050565b7f4f6e6c792070617373656e6765722063616e20656e6420746865207269646500600082015250565b6000610e14601f83610ba7565b9150610e1f82610dde565b602082019050919050565b60006020820190508181036000830152610e4381610e07565b9050919050565b7f4f6e6c79206f776e65722063616e20726566756e64207468652070617373656e60008201527f6765720000000000000000000000000000000000000000000000000000000000602082015250565b6000610ea6602383610ba7565b9150610eb182610e4a565b604082019050919050565b60006020820190508181036000830152610ed581610e99565b9050919050565b7f44657374696e6174696f6e20726561636865642c2063616e277420726566756e60008201527f64207468652070617373656e6765720000000000000000000000000000000000602082015250565b6000610f38602f83610ba7565b9150610f4382610edc565b604082019050919050565b60006020820190508181036000830152610f6781610f2b565b9050919050565b7f4f6e6c792070617373656e6765722063616e207374617274207468652072696460008201527f6500000000000000000000000000000000000000000000000000000000000000602082015250565b6000610fca602183610ba7565b9150610fd582610f6e565b604082019050919050565b60006020820190508181036000830152610ff981610fbd565b9050919050565b7f5269646520616c72656164792073746172746564000000000000000000000000600082015250565b6000611036601483610ba7565b915061104182611000565b602082019050919050565b6000602082019050818103600083015261106581611029565b9050919050565b7f4e487b7100000000000000000000000000000000000000000000000000000000600052602260045260246000fd5b600060028204905060018216806110b357607f821691505b6020821081036110c6576110c561106c565b5b50919050565b7f4e6f7420656e6f756768206d6f6e657900000000000000000000000000000000600082015250565b6000611102601083610ba7565b915061110d826110cc565b602082019050919050565b60006020820190508181036000830152611131816110f5565b9050919050565b7f50617373656e67657220616c7265616479206164646564000000000000000000600082015250565b600061116e601783610ba7565b915061117982611138565b602082019050919050565b6000602082019050818103600083015261119d81611161565b9050919050565b7f4f6e6c79206f776e65722063616e206f76657272696465000000000000000000600082015250565b60006111da601783610ba7565b91506111e5826111a4565b602082019050919050565b60006020820190508181036000830152611209816111cd565b905091905056fea264697066735822122098b05fb91ed528eb932bbd5ac4bc1760ebc30e9ba63b821428b89748003cf09364736f6c63430008120033a2646970667358221220190a3729fe007e80ece6b93bf41f609f90bda046c06aa2f7bb5bd9898fed675c64736f6c63430008120033",
  "linkReferences": {},
  "deployedLinkReferences": {}
}